:100000000C9434000C943E000C943E000C943E0082
:100010000C943E000C943E000C943E000C943E0068
:100020000C943E000C943E000C943E000C943E0058
:100030000C943E000C943E000C943E000C943E0048
:100040000C943E000C943E000C943E000C943E0038
:100050000C943E000C943E000C943E000C943E0028
:100060000C943E000C943E0011241FBECFEFD8E04C
:10007000DEBFCDBF0E9496010C94C1010C9400001C
:100080001F93182F80E060E041E00E940A0180E0A9
:1000900061E040E00E940A0182E0612F0E94680155
:1000A00080E062E041E00E940A0180E197E201976E
:1000B000F1F780E062E040E00E940A011F9108959C
:1000C0001F93182F80E060E040E00E940A0180E06A
:1000D00061E040E00E940A0182E0612F0E94680115
:1000E00080E062E041E00E940A0180E197E201972E
:1000F000F1F780E062E040E00E940A011F9108955C
:1001000088EE93E028EC30E0F9013197F1F70197A0
:10011000D9F780E30E94600080E30E94600080E3E2
:100120000E94600088E30E9460008FE00E946000EF
:1001300081E00E9460000895683008F059C04423AF
:1001400061F5813091F0813020F0823009F050C0AB
:1001500018C024B181E090E002C0880F991F6A9511
:10016000E2F78095822384B941C027B181E090E015
:1001700002C0880F991F6A95E2F78095822387B99C
:1001800035C02AB181E090E002C0880F991F6A95BE
:10019000E2F7809582238AB929C0413049F5813040
:1001A00081F0813018F0823019F516C024B181E059
:1001B00090E002C0880F991F6A95E2F7282B24B9B6
:1001C00015C027B181E090E002C0880F991F6A95A1
:1001D000E2F7282B27B90AC02AB181E090E002C0DB
:1001E000880F991F6A95E2F7282B2AB980E00895B5
:1001F00081E00895813041F0813020F0823039F083
:1002000081E0089564B901C067B980E008956AB9D2
:1002100080E00895683008F059C0442361F58130CA
:1002200091F0813020F0823009F050C018C025B123
:1002300081E090E002C0880F991F6A95E2F78095EF
:10024000822385B941C028B181E090E002C0880FC7
:10025000991F6A95E2F78095822388B935C02BB142
:1002600081E090E002C0880F991F6A95E2F78095BF
:1002700082238BB929C0413049F5813081F081302A
:1002800018F0823019F516C025B181E090E002C067
:10029000880F991F6A95E2F7282B25B915C028B158
:1002A00081E090E002C0880F991F6A95E2F7282B41
:1002B00028B90AC02BB181E090E002C0880F991FD5
:1002C0006A95E2F7282B2BB980E0089581E0089524
:1002D000813041F0813020F0823039F081E00895A2
:1002E00065B901C068B980E008956BB980E00895F0
:1002F000FA0141155105C1F06830B0F4813039F090
:10030000813018F0823081F404C083B103C086B11B
:1003100001C089B190E002C0959587956A95E2F792
:100320008170808380E0089581E0089582E06FEF1E
:100330000E94FA0080E060E041E00E949C0080E0C2
:1003400061E041E00E949C0080E062E041E00E94A8
:100350009C000E9480008BE40E9440008FE40E9479
:10036000400083E50E9440008FE40E9440008DE43D
:100370000E9440008BE40E9440008FE40E944000F5
:06038000FFCFF894FFCF4F
:00000001FF
