:100000000C9434000C9449000C9449000C94490061
:100010000C9449000C9449000C9449000C9449003C
:100020000C9449000C9449000C9449000C9449002C
:100030000C9449000C9449000C9449000C9449001C
:100040000C9449000C9449000C9449000C9449000C
:100050000C9449000C9449000C9449000C944900FC
:100060000C9449000C94490011241FBECFEFD8E036
:10007000DEBFCDBF11E0A0E0B1E0EEEDF1E202C0E5
:1000800005900D92A832B107D9F70E94730D0C9418
:10009000ED100C940000EF92FF920F931F937B01E1
:1000A0008C0120E030E040E05FE40E944B038823B5
:1000B0008CF0C801B70120E030E040E05FE40E942E
:1000C000C3010E94AB039B01AC0120503040404073
:1000D000504806C0C801B7010E94AB039B01AC01A8
:1000E000B901CA011F910F91FF90EF900895A0E010
:1000F000B0E0EDE7F0E00C94B610DC012B01FA0162
:100100009C91923008F439C1EB018881823008F467
:1001100033C1943069F4843009F02FC111969C9159
:1001200011978981981709F428C1A0E0B1E025C191
:10013000843009F421C18230A9F4923009F01DC144
:100140009A01AD0188E0EA010990AE01E901099246
:100150009E018150C1F7E201898111969C9189230A
:10016000818308C1923009F407C112962D903C900A
:100170001397EB018A819B811496AD90BD90CD9031
:10018000DC901797EC80FD800E811F819101281B68
:10019000390BB90137FF04C066277727621B730B41
:1001A000603271050CF061C0121613066CF5370150
:1001B0004801062E04C096948794779467940A9415
:1001C000D2F721E030E040E050E004C0220F331FBE
:1001D000441F551F6A95D2F721503040404050408F
:1001E0002E213F2140235123211531054105510581
:1001F00021F021E030E040E050E079018A01E6287A
:10020000F728082919293CC0232BD1F1260E371EC7
:1002100035014601062E04C096948794779467941E
:100220000A94D2F721E030E040E050E004C0220F11
:10023000331F441F551F6A95D2F72150304040406C
:1002400050402A213B214C215D21211531054105DA
:10025000510521F021E030E040E050E059016A0111
:10026000A628B728C828D9280BC0821593052CF0DA
:100270001C01AA24BB24650103C0EE24FF248701CE
:1002800011969C91D20111968C91981709F445C052
:10029000992339F0A80197012A193B094C095D09F6
:1002A00006C0A60195012E193F09400B510B57FDC1
:1002B00008C0118233822282248335834683578388
:1002C0001DC081E081833382228288279927DC0147
:1002D000821B930BA40BB50B84839583A683B783F2
:1002E0000DC0220F331F441F551F248335834683BF
:1002F00057838281938101979383828324813581FF
:1003000046815781DA01C9010197A109B1098F5FBF
:100310009F4FAF4FBF4328F30BC09183338222829C
:10032000EA0CFB1C0C1D1D1DE482F582068317835D
:1003300083E08083248135814681578157FF1AC02D
:10034000C901AA2797FDA095BA2F81709070A0705F
:10035000B0705695479537952795822B932BA42BF4
:10036000B52B84839583A683B7838281938101967D
:1003700093838283DF0101C0D201CD01CDB7DEB707
:10038000E2E10C94D210A0E2B0E0E9ECF1E00C94D0
:10039000C21069837A838B839C832D833E834F8332
:1003A0005887E9E0EE2EF12CEC0EFD1ECE010196F1
:1003B000B7010E94D4048E010F5E1F4FCE01059637
:1003C000B8010E94D4048A8991E089278A8BC701E9
:1003D000B801AE01475E5F4F0E9477000E94FF03A5
:1003E000A096E6E00C94DE10A0E2B0E0EAEFF1E0C7
:1003F0000C94C21069837A838B839C832D833E8304
:100400004F835887F9E0EF2EF12CEC0EFD1ECE0144
:100410000196B7010E94D4048E010F5E1F4FCE01DA
:100420000596B8010E94D404C701B801AE01475E29
:100430005F4F0E9477000E94FF03A096E6E00C94B5
:10044000DE10A0E2B0E0E7E2F2E00C94B6106983BF
:100450007A838B839C832D833E834F835887CE0181
:100460000196BE01675F7F4F0E94D404CE010596BE
:10047000BE016F5E7F4F0E94D4049985923088F050
:1004800089898230C8F0943019F4823051F404C064
:10049000843029F4923081F480E091E0C6C092303B
:1004A00049F420E09A858A89981321E02A87CE01B1
:1004B0000996BBC0823049F420E09A858A89981356
:1004C00021E02A8BCE014196B0C02D843E844F841A
:1004D00058886D887E888F88988CEE24FF24870149
:1004E000AA24BB24650140E050E060E070E0E0E059
:1004F000F0E0C10181709070892BE9F0E60CF71CE7
:10050000081D191D9A01AB012A0D3B1D4C1D5D1DD7
:1005100080E090E0A0E0B0E0E614F70408051905DB
:1005200020F481E090E0A0E0B0E0BA01A901480F1A
:10053000591F6A1F7B1FAA0CBB1CCC1CDD1C97FE1D
:1005400008C081E090E0A0E0B0E0A82AB92ACA2A59
:10055000DB2A3196E032F10549F0660C771C881CE5
:10056000991C5694479437942794C3CFFA85EA8907
:100570002B893C898B859C85280F391F2E5F3F4F27
:1005800017C0CA0181709070892B61F0169507958C
:10059000F794E79480E090E0A0E0B0E8E82AF92A38
:1005A0000A2B1B2B76956795579547952F5F3F4FE5
:1005B00077FDE7CF0CC0440F551F661F771F17FD4F
:1005C0004160EE0CFF1C001F111F215030404030D5
:1005D00090E0590790E0690790E4790760F32B8F6A
:1005E0003C8FDB01CA018F779070A070B0708034AF
:1005F0009105A105B10561F447FD0AC0E114F104BC
:100600000105110529F0405C5F4F6F4F7F4F407827
:100610001A8EFE1711F081E08A8F4D8F5E8F6F8FDB
:1006200078A383E0898FCE0149960E94FF03A096AC
:10063000E2E10C94D210A8E1B0E0E1E2F3E00C9426
:10064000C21069837A838B839C832D833E834F837F
:10065000588789E0E82EF12CEC0EFD1ECE010196A4
:10066000B7010E94D4048E010F5E1F4FCE01059684
:10067000B8010E94D4048985823040F08989823093
:1006800028F0C701B8010E944C0501C08FEF6896A1
:10069000E6E00C94DE10A8E1B0E0E1E5F3E00C94B4
:1006A000C21069837A838B839C832D833E834F831F
:1006B000588789E0E82EF12CEC0EFD1ECE01019644
:1006C000B7010E94D4048E010F5E1F4FCE01059624
:1006D000B8010E94D4048985823040F08989823033
:1006E00028F0C701B8010E944C0501C08FEF689641
:1006F000E6E00C94DE10A8E1B0E0E1E8F3E00C9451
:10070000C21069837A838B839C832D833E834F83BE
:10071000588789E0E82EF12CEC0EFD1ECE010196E3
:10072000B7010E94D4048E010F5E1F4FCE010596C3
:10073000B8010E94D4048985823040F089898230D2
:1007400028F0C701B8010E944C0501C081E06896FD
:10075000E6E00C94DE10ACE0B0E0E1EBF3E00C94EA
:10076000C61069837A838B839C83CE010196BE0178
:100770006B5F7F4F0E94D4048D81823061F18230A3
:1007800050F1843021F48E81882351F12EC02F81C5
:10079000388537FD20C06E812F3131051CF066236E
:1007A000F9F023C08EE190E0821B930B29853A85F6
:1007B0004B855C8504C056954795379527958A9556
:1007C000D2F76623B1F050954095309521953F4F73
:1007D0004F4F5F4F0EC020E030E040E050E009C0D6
:1007E0002FEF3FEF4FEF5FE704C020E030E040E045
:1007F00050E8B901CA012C96E2E00C94E210DF92B5
:10080000EF92FF920F931F93FC01E480F580068125
:100810001781D1808081823048F480E090E0A0E1AF
:10082000B0E0E82AF92A0A2B1B2BA5C0843009F472
:100830009FC0823021F4EE24FF24870105C0E1141B
:10084000F1040105110519F4E0E0F0E096C06281C1
:1008500073819FEF623879070CF05BC022E83FEFAD
:10086000261B370B2A3131052CF020E030E040E028
:1008700050E02AC0B801A701022E04C07695679502
:10088000579547950A94D2F781E090E0A0E0B0E058
:1008900004C0880F991FAA1FBB1F2A95D2F7019782
:1008A000A109B1098E219F21A023B1230097A105A1
:1008B000B10521F081E090E0A0E0B0E09A01AB0149
:1008C000282B392B4A2B5B2BDA01C9018F779070CB
:1008D000A070B07080349105A105B10539F427FFEF
:1008E00009C0205C3F4F4F4F5F4F04C0215C3F4F1A
:1008F0004F4F5F4FE0E0F0E02030A0E03A07A0E08B
:100900004A07A0E45A0710F0E1E0F0E079018A011B
:1009100027C06038710564F5FB01E158FF4FD8012D
:10092000C7018F779070A070B07080349105A105D9
:10093000B10539F4E7FE0DC080E490E0A0E0B0E03E
:1009400004C08FE390E0A0E0B0E0E80EF91E0A1FBB
:100950001B1F17FF05C016950795F794E79431966E
:1009600087E016950795F794E7948A95D1F705C027
:10097000EE24FF248701EFEFF0E06E2F67956627E6
:100980006795902F9F77D794DD24D7948E2F8695E7
:10099000492F462B582F5D29B701CA011F910F918E
:1009A000FF90EF90DF900895FC01DB0140815181C1
:1009B0002281622F6F7770E0221F2227221F9381EE
:1009C000892F880F822B282F30E0991F9927991F94
:1009D00011969C93119721153105A9F541155105E3
:1009E0006105710511F482E037C082E89FEF13962C
:1009F0009C938E9312979A01AB0167E0220F331FED
:100A0000441F551F6A95D1F783E08C930DC0220FC8
:100A1000331F441F551F12968D919C911397019778
:100A200013969C938E931297203080E0380780E0D5
:100A3000480780E4580758F314962D933D934D933F
:100A40005C93179708952F3F310579F441155105AF
:100A50006105710519F484E08C93089564FF03C067
:100A600081E08C9312C01C9210C02F573040139617
:100A70003C932E93129783E08C9387E0440F551F8D
:100A8000661F771F8A95D1F7706414964D935D9316
:100A90006D937C93179708951F93DC01FB019C9144
:100AA000923008F447C08081823008F443C094300B
:100AB00051F411961C91843099F58181682F70E072
:100AC000611B71093FC0843021F0923031F48230D3
:100AD000B9F18181882389F12DC011961C9111975C
:100AE0008230F1F081811817D9F412962D913C9142
:100AF0001397828193818217930794F028173907FF
:100B0000BCF014968D919D910D90BC91A02D2481E7
:100B1000358146815781281739074A075B0718F442
:100B2000112341F00AC082179307A407B50740F4C8
:100B3000112319F061E070E005C06FEF7FEF02C094
:100B400060E070E0CB011F910895DF93CF93CDB7A4
:100B5000DEB7E9970FB6F894DEBF0FBECDBF89AF01
:100B600080E060E040E00E94D80B80E061E040E07F
:100B70000E94D80B89AD982F92959F7081E0692FC4
:100B80000E94A90C80E063E041E00E94D80B80E065
:100B900090E0A0E0B0E48DAB9EABAFABB8AF6DA979
:100BA0007EA98FA998AD20E030E04AEF54E40E947E
:100BB0002102DC01CB0189AB9AABABABBCAB69A921
:100BC0007AA98BA99CA920E030E040E85FE30E946D
:100BD0007B0388232CF481E090E098AB8FA73FC083
:100BE00069A97AA98BA99CA920E03FEF4FE757E4B8
:100BF0000E941B0318164CF56DA97EA98FA998AD0C
:100C000020E030E040E251E40E942102DC01CB010F
:100C1000BC01CD010E944B00DC01CB0198AB8FA73A
:100C20000FC088EC90E09EA78DA78DA59EA501978B
:100C3000F1F79EA78DA78FA598A9019798AB8FA7CD
:100C40008FA598A9009769F714C069A97AA98BA9FB
:100C50009CA90E944B00DC01CB0198AB8FA78FA50C
:100C600098A99CA78BA78BA59CA50197F1F79CA79A
:100C70008BA780E063E040E00E94D80B80E090E02A
:100C8000A0E0B0E48FA398A7A9A7BAA76FA178A501
:100C900089A59AA520E030E04AEF54E40E942102A1
:100CA000DC01CB018BA39CA3ADA3BEA36BA17CA154
:100CB0008DA19EA120E030E040E85FE30E947B032D
:100CC00088232CF481E090E09AA389A33FC06BA114
:100CD0007CA18DA19EA120E03FEF4FE757E40E9449
:100CE0001B0318164CF56FA178A589A59AA520E0DD
:100CF00030E040E251E40E942102DC01CB01BC0162
:100D0000CD010E944B00DC01CB019AA389A30FC047
:100D100088EC90E098A38F8F8F8D98A10197F1F7C1
:100D200098A38F8F89A19AA101979AA389A389A1DA
:100D30009AA1009769F714C06BA17CA18DA19EA117
:100D40000E944B00DC01CB019AA389A389A19AA13F
:100D50009E8F8D8F8D8D9E8D0197F1F79E8F8D8F3C
:100D600081E069AD0E94A90C80E063E041E00E944F
:100D7000D80B80E090E0A0E0B0E4898F9A8FAB8F31
:100D8000BC8F698D7A8D8B8D9C8D20E030E04AEF91
:100D900054E40E942102DC01CB018D8B9E8BAF8B32
:100DA000B88F6D897E898F89988D20E030E040E88A
:100DB0005FE30E947B0388232CF481E090E09C8B0E
:100DC0008B8B3FC06D897E898F89988D20E03FEFA6
:100DD0004FE757E40E941B0318164CF5698D7A8D76
:100DE0008B8D9C8D20E030E040E251E40E94210296
:100DF000DC01CB01BC01CD010E944B00DC01CB0129
:100E00009C8B8B8B0FC088EC90E09A8B898B8989A7
:100E10009A890197F1F79A8B898B8B899C89019725
:100E20009C8B8B8B8B899C89009769F714C06D898B
:100E30007E898F89988D0E944B00DC01CB019C8BB1
:100E40008B8B8B899C89988B8F878F85988901974D
:100E5000F1F7988B8F8780E063E040E00E94D80B29
:100E600080E090E0A0E0B0E48B879C87AD87BE87F0
:100E70006B857C858D859E8520E030E04AEF54E4CB
:100E80000E942102DC01CB018F839887A987BA8752
:100E90006F81788589859A8520E030E040E85FE3BE
:100EA0000E947B0388232CF481E090E09E838D8355
:100EB0003FC06F81788589859A8520E03FEF4FE7B5
:100EC00057E40E941B0318164CF56B857C858D85B5
:100ED0009E8520E030E040E251E40E942102DC01E6
:100EE000CB01BC01CD010E944B00DC01CB019E83F4
:100EF0008D830FC088EC90E09C838B838B819C81D9
:100F00000197F1F79C838B838D819E8101979E834E
:100F10008D838D819E81009769F714C06F817885DC
:100F200089859A850E944B00DC01CB019E838D83CD
:100F30008D819E819A83898389819A810197F1F7B6
:100F40009A838983E9960FB6F894DEBF0FBECDBFB2
:100F5000CF91DF910895DF93CF93CDB7DEB7E997B7
:100F60000FB6F894DEBF0FBECDBF89AF80E060E062
:100F700041E00E94D80B80E061E040E00E94D80B85
:100F800089AD982F92959F7081E0692F0E94A90CDE
:100F900080E063E041E00E94D80B80E090E0A0E0B8
:100FA000B0E48DAB9EABAFABB8AF6DA97EA98FA9F6
:100FB00098AD20E030E04AEF54E40E942102DC01C9
:100FC000CB0189AB9AABABABBCAB69A97AA98BA9B6
:100FD0009CA920E030E040E85FE30E947B03882387
:100FE0002CF481E090E098AB8FA73FC069A97AA963
:100FF0008BA99CA920E03FEF4FE757E40E941B0319
:1010000018164CF56DA97EA98FA998AD20E030E0A7
:1010100040E251E40E942102DC01CB01BC01CD0180
:101020000E944B00DC01CB0198AB8FA70FC088EC6E
:1010300090E09EA78DA78DA59EA50197F1F79EA78D
:101040008DA78FA598A9019798AB8FA78FA598A971
:10105000009769F714C069A97AA98BA99CA90E9475
:101060004B00DC01CB0198AB8FA78FA598A99CA75B
:101070008BA78BA59CA50197F1F79CA78BA780E078
:1010800063E040E00E94D80B80E090E0A0E0B0E494
:101090008FA398A7A9A7BAA76FA178A589A59AA594
:1010A00020E030E04AEF54E40E942102DC01CB0151
:1010B0008BA39CA3ADA3BEA36BA17CA18DA19EA17C
:1010C00020E030E040E85FE30E947B0388232CF4BB
:1010D00081E090E09AA389A33FC06BA17CA18DA180
:1010E0009EA120E03FEF4FE757E40E941B03181634
:1010F0004CF56FA178A589A59AA520E030E040E2E3
:1011000051E40E942102DC01CB01BC01CD010E940F
:101110004B00DC01CB019AA389A30FC088EC90E0BF
:1011200098A38F8F8F8D98A10197F1F798A38F8F38
:1011300089A19AA101979AA389A389A19AA100974D
:1011400069F714C06BA17CA18DA19EA10E944B00E8
:10115000DC01CB019AA389A389A19AA19E8F8D8FCF
:101160008D8D9E8D0197F1F79E8F8D8F81E069ADFA
:101170000E94A90C80E063E041E00E94D80B80E06F
:1011800090E0A0E0B0E4898F9A8FAB8FBC8F698D1F
:101190007A8D8B8D9C8D20E030E04AEF54E40E94E4
:1011A0002102DC01CB018D8B9E8BAF8BB88F6D89BB
:1011B0007E898F89988D20E030E040E85FE30E94CF
:1011C0007B0388232CF481E090E09C8B8B8B3FC0C9
:1011D0006D897E898F89988D20E03FEF4FE757E436
:1011E0000E941B0318164CF5698D7A8D8B8D9C8D92
:1011F00020E030E040E251E40E942102DC01CB011A
:10120000BC01CD010E944B00DC01CB019C8B8B8B80
:101210000FC088EC90E09A8B898B89899A89019715
:10122000F1F79A8B898B8B899C8901979C8B8B8B8F
:101230008B899C89009769F714C06D897E898F8995
:10124000988D0E944B00DC01CB019C8B8B8B8B8992
:101250009C89988B8F878F8598890197F1F7988B58
:101260008F8780E063E040E00E94D80B80E090E050
:10127000A0E0B0E48B879C87AD87BE876B857C85BB
:101280008D859E8520E030E04AEF54E40E942102E3
:10129000DC01CB018F839887A987BA876F81788516
:1012A00089859A8520E030E040E85FE30E947B0377
:1012B00088232CF481E090E09E838D833FC06F8172
:1012C000788589859A8520E03FEF4FE757E40E94B3
:1012D0001B0318164CF56B857C858D859E8520E05B
:1012E00030E040E251E40E942102DC01CB01BC016C
:1012F000CD010E944B00DC01CB019E838D830FC08A
:1013000088EC90E09C838B838B819C810197F1F723
:101310009C838B838D819E8101979E838D838D819C
:101320009E81009769F714C06F81788589859A85B9
:101330000E944B00DC01CB019E838D838D819E81B9
:101340009A83898389819A810197F1F79A838983A6
:10135000E9960FB6F894DEBF0FBECDBFCF91DF91F7
:101360000895DF93CF93CDB7DEB72E970FB6F894DD
:10137000DEBF0FBECDBF80E090E0A8E4B2E48B8773
:101380009C87AD87BE876B857C858D859E8520E09B
:1013900030E04AEF54E40E942102DC01CB018F834C
:1013A0009887A987BA876F81788589859A8520E093
:1013B00030E040E85FE30E947B0388232CF481E067
:1013C00090E09E838D833FC06F81788589859A8563
:1013D00020E03FEF4FE757E40E941B0318164CF53F
:1013E0006B857C858D859E8520E030E040E251E470
:1013F0000E942102DC01CB01BC01CD010E944B0007
:10140000DC01CB019E838D830FC088EC90E09C8330
:101410008B838B819C810197F1F79C838B838D81DA
:101420009E8101979E838D838D819E81009769F7B0
:1014300014C06F81788589859A850E944B00DC01F4
:10144000CB019E838D838D819E819A83898389813F
:101450009A810197F1F79A83898382E00E94A5051A
:1014600088E20E94A5058CE00E94A50581E00E940B
:10147000A50586E00E94A50581E00E94A5052E969F
:101480000FB6F894DEBF0FBECDBFCF91DF910895A8
:10149000DF93CF9300D00F92CDB7DEB79B838A83C3
:1014A00019820EC08981282F30E08A819B81FC013E
:1014B000E20FF31F80810E94AB0789818F5F8983D0
:1014C0008981282F30E08A819B81FC01E20FF31F84
:1014D0008081882339F70F900F900F90CF91DF9183
:1014E0000895DF93CF9300D00F92CDB7DEB78A83F4
:1014F0006B838A81882319F48B81898306C08A8152
:10150000813019F48B81805C8983898180580E94A5
:10151000A5050F900F900F90CF91DF910895DF9365
:10152000CF93CDB7DEB727970FB6F894DEBF0FBEC7
:10153000CDBF9C838B836D834E832F831A828D81D5
:10154000882F90E0880F991F880F991F880F991F87
:101550008A838A81805C0E94A50519820EC08981D8
:10156000282F30E08B819C81FC01E20FF31F8081EA
:101570000E94AB0789818F5F89838981883078F3E6
:101580008E816F810E94710A8D810E94AB07279620
:101590000FB6F894DEBF0FBECDBFCF91DF91089597
:1015A000DF93CF93CDB7DEB728970FB6F894DEBFA1
:1015B0000FBECDBF8A836B834C8319828B818830A9
:1015C00008F0B3C08C81882309F056C08A81282F87
:1015D00030E038872F838F81988581309105F9F02D
:1015E0002F8138852230310579F18F8198850097D8
:1015F00009F03FC0A4E2B0E0E4E2F0E08081482FCF
:101600008B81282F30E081E090E0022E02C0880F0D
:10161000991F0A94E2F7809584238C9388C0A7E2EF
:10162000B0E0E7E2F0E08081482F8B81282F30E0A6
:1016300081E090E0022E02C0880F991F0A94E2F721
:10164000809584238C9373C0AAE2B0E0EAE2F0E0D4
:101650008081482F8B81282F30E081E090E0022E9E
:1016600002C0880F991F0A94E2F7809584238C9317
:101670005EC081E089835BC08C81813009F052C0FB
:101680008A81282F30E03E832D838D819E81813099
:101690009105E9F02D813E812230310561F18D8186
:1016A0009E810097E1F5A4E2B0E0E4E2F0E0808101
:1016B000482F8B81282F30E081E090E0022E02C07D
:1016C000880F991F0A94E2F7842B8C9330C0A7E20D
:1016D000B0E0E7E2F0E08081482F8B81282F30E0F6
:1016E00081E090E0022E02C0880F991F0A94E2F771
:1016F000842B8C931CC0AAE2B0E0EAE2F0E0808187
:10170000482F8B81282F30E081E090E0022E02C02C
:10171000880F991F0A94E2F7842B8C9308C081E00C
:10172000898305C081E0898302C081E08983898142
:1017300028960FB6F894DEBF0FBECDBFCF91DF91D4
:101740000895DF93CF9300D000D00F92CDB7DEB7CE
:101750008A836B8319828A81282F30E03D832C8312
:101760008C819D818130910571F02C813D812230E9
:10177000310571F08C819D81009779F4E4E2F0E00D
:101780008B8180830CC0E7E2F0E08B81808307C00F
:10179000EAE2F0E08B81808302C081E08983898165
:1017A0000F900F900F900F900F90CF91DF910895B1
:1017B000DF93CF93CDB7DEB728970FB6F894DEBF8F
:1017C0000FBECDBF8A836B834C8319828B81883097
:1017D00008F0B3C08C81882309F056C08A81282F75
:1017E00030E038872F838F81988581309105F9F01B
:1017F0002F8138852230310579F18F8198850097C6
:1018000009F03FC0A5E2B0E0E5E2F0E08081482FBA
:101810008B81282F30E081E090E0022E02C0880FFB
:10182000991F0A94E2F7809584238C9388C0A8E2DC
:10183000B0E0E8E2F0E08081482F8B81282F30E093
:1018400081E090E0022E02C0880F991F0A94E2F70F
:10185000809584238C9373C0ABE2B0E0EBE2F0E0C0
:101860008081482F8B81282F30E081E090E0022E8C
:1018700002C0880F991F0A94E2F7809584238C9305
:101880005EC081E089835BC08C81813009F052C0E9
:101890008A81282F30E03E832D838D819E81813087
:1018A0009105E9F02D813E812230310561F18D8174
:1018B0009E810097E1F5A5E2B0E0E5E2F0E08081ED
:1018C000482F8B81282F30E081E090E0022E02C06B
:1018D000880F991F0A94E2F7842B8C9330C0A8E2FA
:1018E000B0E0E8E2F0E08081482F8B81282F30E0E3
:1018F00081E090E0022E02C0880F991F0A94E2F75F
:10190000842B8C931CC0ABE2B0E0EBE2F0E0808172
:10191000482F8B81282F30E081E090E0022E02C01A
:10192000880F991F0A94E2F7842B8C9308C081E0FA
:10193000898305C081E0898302C081E08983898130
:1019400028960FB6F894DEBF0FBECDBFCF91DF91C2
:101950000895DF93CF9300D000D00F92CDB7DEB7BC
:101960008A836B8319828A81282F30E03D832C8300
:101970008C819D818130910571F02C813D812230D7
:10198000310571F08C819D81009779F4E5E2F0E0FA
:101990008B8180830CC0E8E2F0E08B81808307C0FC
:1019A000EBE2F0E08B81808302C081E08983898152
:1019B0000F900F900F900F900F90CF91DF9108959F
:1019C000DF93CF93CDB7DEB727970FB6F894DEBF7E
:1019D0000FBECDBF8A836B835D834C8319828C815C
:1019E0009D81009709F458C08B81883008F054C05D
:1019F0008A81282F30E03F832E834E815F814130E2
:101A00005105F9F08E819F818230910571F12E810F
:101A10003F812115310509F03CC0E3E2F0E080810F
:101A2000282F30E08B81882F90E0A90102C05595C6
:101A300047958A95E2F7CA018170EC81FD81808328
:101A40002DC0E6E2F0E08081282F30E08B81882FE6
:101A500090E0A90102C0559547958A95E2F7CA0121
:101A60008170EC81FD81808319C0E9E2F0E0808122
:101A7000282F30E08B81882F90E0A90102C0559576
:101A800047958A95E2F7CA018170EC81FD818083D8
:101A900005C081E0898302C081E08983898127961E
:101AA0000FB6F894DEBF0FBECDBFCF91DF91089582
:101AB000DF93CF93CDB7DEB7E4E2F0E087E0808339
:101AC000E7E2F0E08FE08083EAE2F0E01082E5E216
:101AD000F0E01082E8E2F0E01082EBE2F0E0108249
:101AE000CF91DF910895DF93CF93CDB7DEB7CC567A
:101AF000D0400FB6F894DEBF0FBECDBFCE01C99661
:101B00006B969FAF8EAF6B97E0E2F1E06D96FFAF03
:101B1000EEAF6D97F8E06E96FFAF6E976D96EEADF7
:101B2000FFAD6D9700806D968EAD9FAD6D97019660
:101B30006D969FAF8EAF6D976B96EEADFFAD6B97C9
:101B400000826B968EAD9FAD6B9701966B969FAFA3
:101B50008EAF6B976E969FAD6E9791506E969FAFBE
:101B60006E976E96EFAD6E97EE23C1F6CE018F5B4A
:101B70009F4FA0969FAF8EAFA097E8E1F1E0A296AD
:101B8000FFAFEEAFA297F8E0A396FFAFA397A296A0
:101B9000EEADFFADA2970080A2968EAD9FADA2974D
:101BA0000196A2969FAF8EAFA297A096EEADFFAD25
:101BB000A0970082A0968EAD9FADA0970196A096AB
:101BC0009FAF8EAFA097A3969FADA3979150A3967A
:101BD0009FAFA397A396EFADA397EE23C1F6CE01D7
:101BE000875B9F4FA5969FAF8EAFA59780E191E051
:101BF000A7969FAF8EAFA79798E0A8969FAFA8979C
:101C0000A796EEADFFADA7970080A7968EAD9FADCE
:101C1000A7970196A7969FAF8EAFA797A596EEAD13
:101C2000FFADA5970082A5968EAD9FADA5970196B5
:101C3000A5969FAF8EAFA597A8969FADA8979150F8
:101C4000A8969FAFA897A896EFADA897EE23C1F6E8
:101C5000CE018F5A9F4FAA969FAF8EAFAA9788E06A
:101C600091E0AC969FAF8EAFAC9798E0AD969FAFEA
:101C7000AD97AC96EEADFFADAC970080AC968EAD57
:101C80009FADAC970196AC969FAF8EAFAC97AA96DE
:101C9000EEADFFADAA970082AA968EAD9FADAA9732
:101CA0000196AA969FAF8EAFAA97AD969FADAD97BE
:101CB0009150AD969FAFAD97AD96EFADAD97EE233A
:101CC000C1F60E94580D0E94B109CE01C99660E08C
:101CD00040E023E00E948F0ACE018F5B9F4F61E0BE
:101CE00040E022E00E948F0ACE01875B9F4F62E0B6
:101CF00040E021E00E948F0ACE018F5A9F4F63E09F
:101D000040E020E00E948F0A80E090E0AAEFB3E478
:101D10008DAB9EABAFABB8AF6DA97EA98FA998ADC7
:101D200020E030E04AEF54E40E942102DC01CB01C4
:101D300089AB9AABABABBCAB69A97AA98BA99CA9BF
:101D400020E030E040E85FE30E947B0388232CF42E
:101D500081E090E098AB8FA73FC069A97AA98BA9D1
:101D60009CA920E03FEF4FE757E40E941B031816A1
:101D70004CF56DA97EA98FA998AD20E030E040E236
:101D800051E40E942102DC01CB01BC01CD010E9483
:101D90004B00DC01CB0198AB8FA70FC088EC90E023
:101DA0009EA78DA78DA59EA50197F1F79EA78DA74C
:101DB0008FA598A9019798AB8FA78FA598A9009791
:101DC00069F714C069A97AA98BA99CA90E944B0044
:101DD000DC01CB0198AB8FA78FA598A99CA78BA7F7
:101DE0008BA59CA50197F1F79CA78BA781E00E948A
:101DF000A505CE01C99660E041E027E00E948F0A68
:101E0000CE018F5B9F4F61E041E026E00E948F0A88
:101E1000CE01875B9F4F62E041E025E00E948F0A80
:101E2000CE018F5A9F4F63E041E024E00E948F0A69
:101E300080E090E0AAEFB3E48FA398A7A9A7BAA780
:101E40006FA178A589A59AA520E030E04AEF54E477
:101E50000E942102DC01CB018BA39CA3ADA3BEA3F6
:101E60006BA17CA18DA19EA120E030E040E85FE362
:101E70000E947B0388232CF481E090E09AA389A33D
:101E80003FC06BA17CA18DA19EA120E03FEF4FE759
:101E900057E40E941B0318164CF56FA178A589A57D
:101EA0009AA520E030E040E251E40E942102DC01EA
:101EB000CB01BC01CD010E944B00DC01CB019AA3F8
:101EC00089A30FC088EC90E098A38F8F8F8D98A185
:101ED0000197F1F798A38F8F89A19AA101979AA3EF
:101EE00089A389A19AA1009769F714C06BA17CA16D
:101EF0008DA19EA10E944B00DC01CB019AA389A376
:101F000089A19AA19E8F8D8F8D8D9E8D0197F1F75E
:101F10009E8F8D8F81E00E94A505CE01C99660E05D
:101F200040E02BE00E948F0ACE018F5B9F4F61E063
:101F300040E02AE00E948F0ACE01875B9F4F62E05B
:101F400040E029E00E948F0ACE018F5A9F4F63E044
:101F500040E028E00E948F0A80E090E0AAEFB3E41E
:101F6000898F9A8FAB8FBC8F698D7A8D8B8D9C8D6D
:101F700020E030E04AEF54E40E942102DC01CB0172
:101F80008D8B9E8BAF8BB88F6D897E898F89988D55
:101F900020E030E040E85FE30E947B0388232CF4DC
:101FA00081E090E09C8B8B8B3FC06D897E898F890F
:101FB000988D20E03FEF4FE757E40E941B0318166F
:101FC0004CF5698D7A8D8B8D9C8D20E030E040E260
:101FD00051E40E942102DC01CB01BC01CD010E9431
:101FE0004B00DC01CB019C8B8B8B0FC088EC90E00D
:101FF0009A8B898B89899A890197F1F79A8B898BBA
:102000008B899C8901979C8B8B8B8B899C890097F2
:1020100069F714C06D897E898F89988D0E944B0065
:10202000DC01CB019C8B8B8B8B899C89988B8F8758
:102030008F8598890197F1F7988B8F8781E00E94AF
:10204000A505CE01C99660E041E02FE00E948F0A0D
:10205000CE018F5B9F4F61E041E02EE00E948F0A2E
:10206000CE01875B9F4F62E041E02DE00E948F0A26
:10207000CE018F5A9F4F63E041E02CE00E948F0A0F
:1020800080E090E0AAEFB3E48B879C87AD87BE87A2
:102090006B857C858D859E8520E030E04AEF54E499
:1020A0000E942102DC01CB018F839887A987BA8720
:1020B0006F81788589859A8520E030E040E85FE38C
:1020C0000E947B0388232CF481E090E09E838D8323
:1020D0003FC06F81788589859A8520E03FEF4FE783
:1020E00057E40E941B0318164CF56B857C858D8583
:1020F0009E8520E030E040E251E40E942102DC01B4
:10210000CB01BC01CD010E944B00DC01CB019E83C1
:102110008D830FC088EC90E09C838B838B819C81A6
:102120000197F1F79C838B838D819E8101979E831C
:102130008D838D819E81009769F714C06F817885AA
:1021400089859A850E944B00DC01CB019E838D839B
:102150008D819E819A83898389819A810197F1F784
:102160009A83898381E00E94A505AFCD2F923F928B
:102170004F925F926F927F928F929F92AF92BF9297
:10218000CF92DF92EF92FF920F931F93CF93DF9343
:10219000CDB7DEB7CA1BDB0B0FB6F894DEBF0FBEA0
:1021A000CDBF09942A88398848885F846E847D84ED
:1021B0008C849B84AA84B984C884DF80EE80FD80EF
:1021C0000C811B81AA81B981CE0FD11D0FB6F89465
:0E21D000DEBF0FBECDBFED010895F894FFCF26
:1021DE000000000000000000001C141C070000009E
:1021EE00000000041F000C00000007011F00020089
:0821FE00000E0A0E0204081095
:00000001FF
